{
  "_format": "hh-sol-artifact-1",
  "contractName": "BadButcher",
  "sourceName": "contracts/BadButcher.sol",
  "abi": [
    {
      "inputs": [],
      "stateMutability": "nonpayable",
      "type": "constructor"
    },
    {
      "anonymous": false,
      "inputs": [
        {
          "indexed": false,
          "internalType": "address",
          "name": "previousAdmin",
          "type": "address"
        },
        {
          "indexed": false,
          "internalType": "address",
          "name": "newAdmin",
          "type": "address"
        }
      ],
      "name": "AdminChanged",
      "type": "event"
    },
    {
      "anonymous": false,
      "inputs": [
        {
          "indexed": true,
          "internalType": "address",
          "name": "owner",
          "type": "address"
        },
        {
          "indexed": true,
          "internalType": "address",
          "name": "approved",
          "type": "address"
        },
        {
          "indexed": true,
          "internalType": "uint256",
          "name": "tokenId",
          "type": "uint256"
        }
      ],
      "name": "Approval",
      "type": "event"
    },
    {
      "anonymous": false,
      "inputs": [
        {
          "indexed": true,
          "internalType": "address",
          "name": "owner",
          "type": "address"
        },
        {
          "indexed": true,
          "internalType": "address",
          "name": "operator",
          "type": "address"
        },
        {
          "indexed": false,
          "internalType": "bool",
          "name": "approved",
          "type": "bool"
        }
      ],
      "name": "ApprovalForAll",
      "type": "event"
    },
    {
      "anonymous": false,
      "inputs": [
        {
          "indexed": true,
          "internalType": "address",
          "name": "beacon",
          "type": "address"
        }
      ],
      "name": "BeaconUpgraded",
      "type": "event"
    },
    {
      "anonymous": false,
      "inputs": [
        {
          "indexed": false,
          "internalType": "uint8",
          "name": "version",
          "type": "uint8"
        }
      ],
      "name": "Initialized",
      "type": "event"
    },
    {
      "anonymous": false,
      "inputs": [
        {
          "indexed": true,
          "internalType": "address",
          "name": "previousOwner",
          "type": "address"
        },
        {
          "indexed": true,
          "internalType": "address",
          "name": "newOwner",
          "type": "address"
        }
      ],
      "name": "OwnershipTransferred",
      "type": "event"
    },
    {
      "anonymous": false,
      "inputs": [
        {
          "indexed": false,
          "internalType": "address",
          "name": "account",
          "type": "address"
        }
      ],
      "name": "Paused",
      "type": "event"
    },
    {
      "anonymous": false,
      "inputs": [
        {
          "indexed": true,
          "internalType": "address",
          "name": "from",
          "type": "address"
        },
        {
          "indexed": true,
          "internalType": "address",
          "name": "to",
          "type": "address"
        },
        {
          "indexed": true,
          "internalType": "uint256",
          "name": "tokenId",
          "type": "uint256"
        }
      ],
      "name": "Transfer",
      "type": "event"
    },
    {
      "anonymous": false,
      "inputs": [
        {
          "indexed": false,
          "internalType": "address",
          "name": "account",
          "type": "address"
        }
      ],
      "name": "Unpaused",
      "type": "event"
    },
    {
      "anonymous": false,
      "inputs": [
        {
          "indexed": true,
          "internalType": "address",
          "name": "implementation",
          "type": "address"
        }
      ],
      "name": "Upgraded",
      "type": "event"
    },
    {
      "inputs": [
        {
          "internalType": "address",
          "name": "to",
          "type": "address"
        },
        {
          "internalType": "uint256",
          "name": "tokenId",
          "type": "uint256"
        }
      ],
      "name": "approve",
      "outputs": [],
      "stateMutability": "nonpayable",
      "type": "function"
    },
    {
      "inputs": [
        {
          "internalType": "address",
          "name": "owner",
          "type": "address"
        }
      ],
      "name": "balanceOf",
      "outputs": [
        {
          "internalType": "uint256",
          "name": "",
          "type": "uint256"
        }
      ],
      "stateMutability": "view",
      "type": "function"
    },
    {
      "inputs": [
        {
          "internalType": "uint256",
          "name": "tokenId",
          "type": "uint256"
        }
      ],
      "name": "getApproved",
      "outputs": [
        {
          "internalType": "address",
          "name": "",
          "type": "address"
        }
      ],
      "stateMutability": "view",
      "type": "function"
    },
    {
      "inputs": [],
      "name": "initialize",
      "outputs": [],
      "stateMutability": "nonpayable",
      "type": "function"
    },
    {
      "inputs": [
        {
          "internalType": "address",
          "name": "owner",
          "type": "address"
        },
        {
          "internalType": "address",
          "name": "operator",
          "type": "address"
        }
      ],
      "name": "isApprovedForAll",
      "outputs": [
        {
          "internalType": "bool",
          "name": "",
          "type": "bool"
        }
      ],
      "stateMutability": "view",
      "type": "function"
    },
    {
      "inputs": [
        {
          "internalType": "address",
          "name": "recipient",
          "type": "address"
        },
        {
          "internalType": "string",
          "name": "uri",
          "type": "string"
        },
        {
          "internalType": "address",
          "name": "royaltFeeReceiver",
          "type": "address"
        },
        {
          "internalType": "uint96",
          "name": "fee",
          "type": "uint96"
        }
      ],
      "name": "mintWithRoyalty",
      "outputs": [
        {
          "internalType": "uint256",
          "name": "",
          "type": "uint256"
        }
      ],
      "stateMutability": "nonpayable",
      "type": "function"
    },
    {
      "inputs": [],
      "name": "name",
      "outputs": [
        {
          "internalType": "string",
          "name": "",
          "type": "string"
        }
      ],
      "stateMutability": "view",
      "type": "function"
    },
    {
      "inputs": [],
      "name": "owner",
      "outputs": [
        {
          "internalType": "address",
          "name": "",
          "type": "address"
        }
      ],
      "stateMutability": "view",
      "type": "function"
    },
    {
      "inputs": [
        {
          "internalType": "uint256",
          "name": "tokenId",
          "type": "uint256"
        }
      ],
      "name": "ownerOf",
      "outputs": [
        {
          "internalType": "address",
          "name": "",
          "type": "address"
        }
      ],
      "stateMutability": "view",
      "type": "function"
    },
    {
      "inputs": [],
      "name": "pause",
      "outputs": [],
      "stateMutability": "nonpayable",
      "type": "function"
    },
    {
      "inputs": [],
      "name": "paused",
      "outputs": [
        {
          "internalType": "bool",
          "name": "",
          "type": "bool"
        }
      ],
      "stateMutability": "view",
      "type": "function"
    },
    {
      "inputs": [],
      "name": "proxiableUUID",
      "outputs": [
        {
          "internalType": "bytes32",
          "name": "",
          "type": "bytes32"
        }
      ],
      "stateMutability": "view",
      "type": "function"
    },
    {
      "inputs": [],
      "name": "renounceOwnership",
      "outputs": [],
      "stateMutability": "nonpayable",
      "type": "function"
    },
    {
      "inputs": [
        {
          "internalType": "uint256",
          "name": "_tokenId",
          "type": "uint256"
        },
        {
          "internalType": "uint256",
          "name": "_salePrice",
          "type": "uint256"
        }
      ],
      "name": "royaltyInfo",
      "outputs": [
        {
          "internalType": "address",
          "name": "",
          "type": "address"
        },
        {
          "internalType": "uint256",
          "name": "",
          "type": "uint256"
        }
      ],
      "stateMutability": "view",
      "type": "function"
    },
    {
      "inputs": [
        {
          "internalType": "address",
          "name": "to",
          "type": "address"
        },
        {
          "internalType": "string",
          "name": "uri",
          "type": "string"
        }
      ],
      "name": "safeMint",
      "outputs": [],
      "stateMutability": "nonpayable",
      "type": "function"
    },
    {
      "inputs": [
        {
          "internalType": "address",
          "name": "from",
          "type": "address"
        },
        {
          "internalType": "address",
          "name": "to",
          "type": "address"
        },
        {
          "internalType": "uint256",
          "name": "tokenId",
          "type": "uint256"
        }
      ],
      "name": "safeTransferFrom",
      "outputs": [],
      "stateMutability": "nonpayable",
      "type": "function"
    },
    {
      "inputs": [
        {
          "internalType": "address",
          "name": "from",
          "type": "address"
        },
        {
          "internalType": "address",
          "name": "to",
          "type": "address"
        },
        {
          "internalType": "uint256",
          "name": "tokenId",
          "type": "uint256"
        },
        {
          "internalType": "bytes",
          "name": "data",
          "type": "bytes"
        }
      ],
      "name": "safeTransferFrom",
      "outputs": [],
      "stateMutability": "nonpayable",
      "type": "function"
    },
    {
      "inputs": [
        {
          "internalType": "address",
          "name": "operator",
          "type": "address"
        },
        {
          "internalType": "bool",
          "name": "approved",
          "type": "bool"
        }
      ],
      "name": "setApprovalForAll",
      "outputs": [],
      "stateMutability": "nonpayable",
      "type": "function"
    },
    {
      "inputs": [
        {
          "internalType": "bytes4",
          "name": "interfaceId",
          "type": "bytes4"
        }
      ],
      "name": "supportsInterface",
      "outputs": [
        {
          "internalType": "bool",
          "name": "",
          "type": "bool"
        }
      ],
      "stateMutability": "view",
      "type": "function"
    },
    {
      "inputs": [],
      "name": "symbol",
      "outputs": [
        {
          "internalType": "string",
          "name": "",
          "type": "string"
        }
      ],
      "stateMutability": "view",
      "type": "function"
    },
    {
      "inputs": [
        {
          "internalType": "uint256",
          "name": "index",
          "type": "uint256"
        }
      ],
      "name": "tokenByIndex",
      "outputs": [
        {
          "internalType": "uint256",
          "name": "",
          "type": "uint256"
        }
      ],
      "stateMutability": "view",
      "type": "function"
    },
    {
      "inputs": [
        {
          "internalType": "address",
          "name": "owner",
          "type": "address"
        },
        {
          "internalType": "uint256",
          "name": "index",
          "type": "uint256"
        }
      ],
      "name": "tokenOfOwnerByIndex",
      "outputs": [
        {
          "internalType": "uint256",
          "name": "",
          "type": "uint256"
        }
      ],
      "stateMutability": "view",
      "type": "function"
    },
    {
      "inputs": [
        {
          "internalType": "uint256",
          "name": "tokenId",
          "type": "uint256"
        }
      ],
      "name": "tokenURI",
      "outputs": [
        {
          "internalType": "string",
          "name": "",
          "type": "string"
        }
      ],
      "stateMutability": "view",
      "type": "function"
    },
    {
      "inputs": [],
      "name": "totalSupply",
      "outputs": [
        {
          "internalType": "uint256",
          "name": "",
          "type": "uint256"
        }
      ],
      "stateMutability": "view",
      "type": "function"
    },
    {
      "inputs": [
        {
          "internalType": "address",
          "name": "from",
          "type": "address"
        },
        {
          "internalType": "address",
          "name": "to",
          "type": "address"
        },
        {
          "internalType": "uint256",
          "name": "tokenId",
          "type": "uint256"
        }
      ],
      "name": "transferFrom",
      "outputs": [],
      "stateMutability": "nonpayable",
      "type": "function"
    },
    {
      "inputs": [
        {
          "internalType": "address",
          "name": "newOwner",
          "type": "address"
        }
      ],
      "name": "transferOwnership",
      "outputs": [],
      "stateMutability": "nonpayable",
      "type": "function"
    },
    {
      "inputs": [],
      "name": "unpause",
      "outputs": [],
      "stateMutability": "nonpayable",
      "type": "function"
    },
    {
      "inputs": [
        {
          "internalType": "address",
          "name": "newImplementation",
          "type": "address"
        }
      ],
      "name": "upgradeTo",
      "outputs": [],
      "stateMutability": "nonpayable",
      "type": "function"
    },
    {
      "inputs": [
        {
          "internalType": "address",
          "name": "newImplementation",
          "type": "address"
        },
        {
          "internalType": "bytes",
          "name": "data",
          "type": "bytes"
        }
      ],
      "name": "upgradeToAndCall",
      "outputs": [],
      "stateMutability": "payable",
      "type": "function"
    }
  ],
  "bytecode": "0x60a06040523073ffffffffffffffffffffffffffffffffffffffff1660809073ffffffffffffffffffffffffffffffffffffffff168152503480156200004457600080fd5b50620000556200005b60201b60201c565b62000206565b600060019054906101000a900460ff1615620000ae576040517f08c379a0000000000000000000000000000000000000000000000000000000008152600401620000a590620001a9565b60405180910390fd5b60ff801660008054906101000a900460ff1660ff161015620001205760ff6000806101000a81548160ff021916908360ff1602179055507f7f26b83ff96e1f2b6a682f133852f6798a09c465da95921460cefb384740249860ff604051620001179190620001e9565b60405180910390a15b565b600082825260208201905092915050565b7f496e697469616c697a61626c653a20636f6e747261637420697320696e69746960008201527f616c697a696e6700000000000000000000000000000000000000000000000000602082015250565b60006200019160278362000122565b91506200019e8262000133565b604082019050919050565b60006020820190508181036000830152620001c48162000182565b9050919050565b600060ff82169050919050565b620001e381620001cb565b82525050565b6000602082019050620002006000830184620001d8565b92915050565b6080516157ca6200023e60003960008181610bef01528181610c7e01528181610df001528181610e7f0152610fa001526157ca6000f3fe6080604052600436106101c25760003560e01c806352d1902d116100f75780638da5cb5b11610095578063c87b56dd11610064578063c87b56dd14610620578063d204c45e1461065d578063e985e9c514610686578063f2fde38b146106c3576101c2565b80638da5cb5b1461057857806395d89b41146105a3578063a22cb465146105ce578063b88d4fde146105f7576101c2565b806370a08231116100d157806370a08231146104f6578063715018a6146105335780638129fc1c1461054a5780638456cb5914610561576101c2565b806352d1902d146104635780635c975abb1461048e5780636352211e146104b9576101c2565b80632f745c591161016457806342842e0e1161013e57806342842e0e146103a457806344e96670146103cd5780634f1ef2861461040a5780634f6ccce714610426576101c2565b80632f745c59146103275780633659cfe6146103645780633f4ba83a1461038d576101c2565b8063095ea7b3116101a0578063095ea7b31461026c57806318160ddd1461029557806323b872dd146102c05780632a55205a146102e9576101c2565b806301ffc9a7146101c757806306fdde0314610204578063081812fc1461022f575b600080fd5b3480156101d357600080fd5b506101ee60048036038101906101e99190613adf565b6106ec565b6040516101fb9190613b27565b60405180910390f35b34801561021057600080fd5b506102196106fe565b6040516102269190613bdb565b60405180910390f35b34801561023b57600080fd5b5061025660048036038101906102519190613c33565b610790565b6040516102639190613ca1565b60405180910390f35b34801561027857600080fd5b50610293600480360381019061028e9190613ce8565b6107d6565b005b3480156102a157600080fd5b506102aa6108ee565b6040516102b79190613d37565b60405180910390f35b3480156102cc57600080fd5b506102e760048036038101906102e29190613d52565b6108fb565b005b3480156102f557600080fd5b50610310600480360381019061030b9190613da5565b61095b565b60405161031e929190613de5565b60405180910390f35b34801561033357600080fd5b5061034e60048036038101906103499190613ce8565b610b48565b60405161035b9190613d37565b60405180910390f35b34801561037057600080fd5b5061038b60048036038101906103869190613e0e565b610bed565b005b34801561039957600080fd5b506103a2610d76565b005b3480156103b057600080fd5b506103cb60048036038101906103c69190613d52565b610d88565b005b3480156103d957600080fd5b506103f460048036038101906103ef9190613fb4565b610da8565b6040516104019190613d37565b60405180910390f35b610424600480360381019061041f91906140d8565b610dee565b005b34801561043257600080fd5b5061044d60048036038101906104489190613c33565b610f2b565b60405161045a9190613d37565b60405180910390f35b34801561046f57600080fd5b50610478610f9c565b604051610485919061414d565b60405180910390f35b34801561049a57600080fd5b506104a3611055565b6040516104b09190613b27565b60405180910390f35b3480156104c557600080fd5b506104e060048036038101906104db9190613c33565b61106c565b6040516104ed9190613ca1565b60405180910390f35b34801561050257600080fd5b5061051d60048036038101906105189190613e0e565b6110f3565b60405161052a9190613d37565b60405180910390f35b34801561053f57600080fd5b506105486111ab565b005b34801561055657600080fd5b5061055f6111bf565b005b34801561056d57600080fd5b50610576611391565b005b34801561058457600080fd5b5061058d6113a3565b60405161059a9190613ca1565b60405180910390f35b3480156105af57600080fd5b506105b86113ce565b6040516105c59190613bdb565b60405180910390f35b3480156105da57600080fd5b506105f560048036038101906105f09190614194565b611460565b005b34801561060357600080fd5b5061061e600480360381019061061991906141d4565b611476565b005b34801561062c57600080fd5b5061064760048036038101906106429190613c33565b6114d8565b6040516106549190613bdb565b60405180910390f35b34801561066957600080fd5b50610684600480360381019061067f9190614257565b6114ea565b005b34801561069257600080fd5b506106ad60048036038101906106a891906142b3565b611525565b6040516106ba9190613b27565b60405180910390f35b3480156106cf57600080fd5b506106ea60048036038101906106e59190613e0e565b6115b9565b005b60006106f78261163d565b9050919050565b60606065805461070d90614322565b80601f016020809104026020016040519081016040528092919081815260200182805461073990614322565b80156107865780601f1061075b57610100808354040283529160200191610786565b820191906000526020600020905b81548152906001019060200180831161076957829003601f168201915b5050505050905090565b600061079b826116b7565b6069600083815260200190815260200160002060009054906101000a900473ffffffffffffffffffffffffffffffffffffffff169050919050565b60006107e18261106c565b90508073ffffffffffffffffffffffffffffffffffffffff168373ffffffffffffffffffffffffffffffffffffffff161415610852576040517f08c379a0000000000000000000000000000000000000000000000000000000008152600401610849906143c6565b60405180910390fd5b8073ffffffffffffffffffffffffffffffffffffffff16610871611702565b73ffffffffffffffffffffffffffffffffffffffff1614806108a0575061089f8161089a611702565b611525565b5b6108df576040517f08c379a00000000000000000000000000000000000000000000000000000000081526004016108d690614458565b60405180910390fd5b6108e9838361170a565b505050565b6000609980549050905090565b61090c610906611702565b826117c3565b61094b576040517f08c379a0000000000000000000000000000000000000000000000000000000008152600401610942906144ea565b60405180910390fd5b610956838383611858565b505050565b60008060006101c460008681526020019081526020016000206040518060400160405290816000820160009054906101000a900473ffffffffffffffffffffffffffffffffffffffff1673ffffffffffffffffffffffffffffffffffffffff1673ffffffffffffffffffffffffffffffffffffffff1681526020016000820160149054906101000a90046bffffffffffffffffffffffff166bffffffffffffffffffffffff166bffffffffffffffffffffffff16815250509050600073ffffffffffffffffffffffffffffffffffffffff16816000015173ffffffffffffffffffffffffffffffffffffffff161415610af3576101c36040518060400160405290816000820160009054906101000a900473ffffffffffffffffffffffffffffffffffffffff1673ffffffffffffffffffffffffffffffffffffffff1673ffffffffffffffffffffffffffffffffffffffff1681526020016000820160149054906101000a90046bffffffffffffffffffffffff166bffffffffffffffffffffffff166bffffffffffffffffffffffff168152505090505b6000610afd611b52565b6bffffffffffffffffffffffff1682602001516bffffffffffffffffffffffff1686610b299190614539565b610b3391906145c2565b90508160000151819350935050509250929050565b6000610b53836110f3565b8210610b94576040517f08c379a0000000000000000000000000000000000000000000000000000000008152600401610b8b90614665565b60405180910390fd5b609760008473ffffffffffffffffffffffffffffffffffffffff1673ffffffffffffffffffffffffffffffffffffffff168152602001908152602001600020600083815260200190815260200160002054905092915050565b7f000000000000000000000000000000000000000000000000000000000000000073ffffffffffffffffffffffffffffffffffffffff163073ffffffffffffffffffffffffffffffffffffffff161415610c7c576040517f08c379a0000000000000000000000000000000000000000000000000000000008152600401610c73906146f7565b60405180910390fd5b7f000000000000000000000000000000000000000000000000000000000000000073ffffffffffffffffffffffffffffffffffffffff16610cbb611b5c565b73ffffffffffffffffffffffffffffffffffffffff1614610d11576040517f08c379a0000000000000000000000000000000000000000000000000000000008152600401610d0890614789565b60405180910390fd5b610d1a81611bb3565b610d7381600067ffffffffffffffff811115610d3957610d38613e45565b5b6040519080825280601f01601f191660200182016040528015610d6b5781602001600182028036833780820191505090505b506000611bbe565b50565b610d7e611d3b565b610d86611db9565b565b610da383838360405180602001604052806000815250611476565b505050565b600080610db66101f5611e1c565b9050610dc36101f5611e2a565b610dcd8682611e40565b610dd78186611e5e565b610de2818585611ed2565b80915050949350505050565b7f000000000000000000000000000000000000000000000000000000000000000073ffffffffffffffffffffffffffffffffffffffff163073ffffffffffffffffffffffffffffffffffffffff161415610e7d576040517f08c379a0000000000000000000000000000000000000000000000000000000008152600401610e74906146f7565b60405180910390fd5b7f000000000000000000000000000000000000000000000000000000000000000073ffffffffffffffffffffffffffffffffffffffff16610ebc611b5c565b73ffffffffffffffffffffffffffffffffffffffff1614610f12576040517f08c379a0000000000000000000000000000000000000000000000000000000008152600401610f0990614789565b60405180910390fd5b610f1b82611bb3565b610f2782826001611bbe565b5050565b6000610f356108ee565b8210610f76576040517f08c379a0000000000000000000000000000000000000000000000000000000008152600401610f6d9061481b565b60405180910390fd5b60998281548110610f8a57610f8961483b565b5b90600052602060002001549050919050565b60007f000000000000000000000000000000000000000000000000000000000000000073ffffffffffffffffffffffffffffffffffffffff163073ffffffffffffffffffffffffffffffffffffffff161461102c576040517f08c379a0000000000000000000000000000000000000000000000000000000008152600401611023906148dc565b60405180910390fd5b7f360894a13ba1a3210667c828492db98dca3e2076cc3735a920a3ca505d382bbc60001b905090565b600060fb60009054906101000a900460ff16905090565b6000806110788361207b565b9050600073ffffffffffffffffffffffffffffffffffffffff168173ffffffffffffffffffffffffffffffffffffffff1614156110ea576040517f08c379a00000000000000000000000000000000000000000000000000000000081526004016110e190614948565b60405180910390fd5b80915050919050565b60008073ffffffffffffffffffffffffffffffffffffffff168273ffffffffffffffffffffffffffffffffffffffff161415611164576040517f08c379a000000000000000000000000000000000000000000000000000000000815260040161115b906149da565b60405180910390fd5b606860008373ffffffffffffffffffffffffffffffffffffffff1673ffffffffffffffffffffffffffffffffffffffff168152602001908152602001600020549050919050565b6111b3611d3b565b6111bd60006120b8565b565b60008060019054906101000a900460ff161590508080156111f05750600160008054906101000a900460ff1660ff16105b8061121d57506111ff30612180565b15801561121c5750600160008054906101000a900460ff1660ff16145b5b61125c576040517f08c379a000000000000000000000000000000000000000000000000000000000815260040161125390614a6c565b60405180910390fd5b60016000806101000a81548160ff021916908360ff1602179055508015611299576001600060016101000a81548160ff0219169083151502179055505b61130d6040518060400160405280600a81526020017f42616442757463686572000000000000000000000000000000000000000000008152506040518060400160405280600581526020017f42544348520000000000000000000000000000000000000000000000000000008152506121a3565b611315612200565b61131d612251565b6113256122a2565b61132d6122fb565b611335612354565b801561138e5760008060016101000a81548160ff0219169083151502179055507f7f26b83ff96e1f2b6a682f133852f6798a09c465da95921460cefb384740249860016040516113859190614ade565b60405180910390a15b50565b611399611d3b565b6113a16123a5565b565b600061012d60009054906101000a900473ffffffffffffffffffffffffffffffffffffffff16905090565b6060606680546113dd90614322565b80601f016020809104026020016040519081016040528092919081815260200182805461140990614322565b80156114565780601f1061142b57610100808354040283529160200191611456565b820191906000526020600020905b81548152906001019060200180831161143957829003601f168201915b5050505050905090565b61147261146b611702565b8383612408565b5050565b611487611481611702565b836117c3565b6114c6576040517f08c379a00000000000000000000000000000000000000000000000000000000081526004016114bd906144ea565b60405180910390fd5b6114d284848484612575565b50505050565b60606114e3826125d1565b9050919050565b6114f2611d3b565b60006114ff6101f5611e1c565b905061150c6101f5611e2a565b6115168382611e40565b6115208183611e5e565b505050565b6000606a60008473ffffffffffffffffffffffffffffffffffffffff1673ffffffffffffffffffffffffffffffffffffffff16815260200190815260200160002060008373ffffffffffffffffffffffffffffffffffffffff1673ffffffffffffffffffffffffffffffffffffffff16815260200190815260200160002060009054906101000a900460ff16905092915050565b6115c1611d3b565b600073ffffffffffffffffffffffffffffffffffffffff168173ffffffffffffffffffffffffffffffffffffffff161415611631576040517f08c379a000000000000000000000000000000000000000000000000000000000815260040161162890614b6b565b60405180910390fd5b61163a816120b8565b50565b60007f2a55205a000000000000000000000000000000000000000000000000000000007bffffffffffffffffffffffffffffffffffffffffffffffffffffffff1916827bffffffffffffffffffffffffffffffffffffffffffffffffffffffff191614806116b057506116af826126e4565b5b9050919050565b6116c08161275e565b6116ff576040517f08c379a00000000000000000000000000000000000000000000000000000000081526004016116f690614948565b60405180910390fd5b50565b600033905090565b816069600083815260200190815260200160002060006101000a81548173ffffffffffffffffffffffffffffffffffffffff021916908373ffffffffffffffffffffffffffffffffffffffff160217905550808273ffffffffffffffffffffffffffffffffffffffff1661177d8361106c565b73ffffffffffffffffffffffffffffffffffffffff167f8c5be1e5ebec7d5bd14f71427d1e84f3dd0314c0f7b2291e5b200ac8c7c3b92560405160405180910390a45050565b6000806117cf8361106c565b90508073ffffffffffffffffffffffffffffffffffffffff168473ffffffffffffffffffffffffffffffffffffffff16148061181157506118108185611525565b5b8061184f57508373ffffffffffffffffffffffffffffffffffffffff1661183784610790565b73ffffffffffffffffffffffffffffffffffffffff16145b91505092915050565b8273ffffffffffffffffffffffffffffffffffffffff166118788261106c565b73ffffffffffffffffffffffffffffffffffffffff16146118ce576040517f08c379a00000000000000000000000000000000000000000000000000000000081526004016118c590614bfd565b60405180910390fd5b600073ffffffffffffffffffffffffffffffffffffffff168273ffffffffffffffffffffffffffffffffffffffff16141561193e576040517f08c379a000000000000000000000000000000000000000000000000000000000815260040161193590614c8f565b60405180910390fd5b61194b838383600161279f565b8273ffffffffffffffffffffffffffffffffffffffff1661196b8261106c565b73ffffffffffffffffffffffffffffffffffffffff16146119c1576040517f08c379a00000000000000000000000000000000000000000000000000000000081526004016119b890614bfd565b60405180910390fd5b6069600082815260200190815260200160002060006101000a81549073ffffffffffffffffffffffffffffffffffffffff02191690556001606860008573ffffffffffffffffffffffffffffffffffffffff1673ffffffffffffffffffffffffffffffffffffffff168152602001908152602001600020600082825403925050819055506001606860008473ffffffffffffffffffffffffffffffffffffffff1673ffffffffffffffffffffffffffffffffffffffff16815260200190815260200160002060008282540192505081905550816067600083815260200190815260200160002060006101000a81548173ffffffffffffffffffffffffffffffffffffffff021916908373ffffffffffffffffffffffffffffffffffffffff160217905550808273ffffffffffffffffffffffffffffffffffffffff168473ffffffffffffffffffffffffffffffffffffffff167fddf252ad1be2c89b69c2b068fc378daa952ba7f163c4a11628f55a4df523b3ef60405160405180910390a4611b4d83838360016127b9565b505050565b6000612710905090565b6000611b8a7f360894a13ba1a3210667c828492db98dca3e2076cc3735a920a3ca505d382bbc60001b6127bf565b60000160009054906101000a900473ffffffffffffffffffffffffffffffffffffffff16905090565b611bbb611d3b565b50565b611bea7f4910fdfa16fed3260ed0e7147f7cc6da11a60208b5b9406d12a635614ffd914360001b6127c9565b60000160009054906101000a900460ff1615611c0e57611c09836127d3565b611d36565b8273ffffffffffffffffffffffffffffffffffffffff166352d1902d6040518163ffffffff1660e01b815260040160206040518083038186803b158015611c5457600080fd5b505afa925050508015611c8557506040513d601f19601f82011682018060405250810190611c829190614cdb565b60015b611cc4576040517f08c379a0000000000000000000000000000000000000000000000000000000008152600401611cbb90614d7a565b60405180910390fd5b7f360894a13ba1a3210667c828492db98dca3e2076cc3735a920a3ca505d382bbc60001b8114611d29576040517f08c379a0000000000000000000000000000000000000000000000000000000008152600401611d2090614e0c565b60405180910390fd5b50611d3583838361288c565b5b505050565b611d43611702565b73ffffffffffffffffffffffffffffffffffffffff16611d616113a3565b73ffffffffffffffffffffffffffffffffffffffff1614611db7576040517f08c379a0000000000000000000000000000000000000000000000000000000008152600401611dae90614e78565b60405180910390fd5b565b611dc16128b8565b600060fb60006101000a81548160ff0219169083151502179055507f5db9ee0a495bf2e6ff9c91a7834c1ba4fdd244a5e8aa4e537bd38aeae4b073aa611e05611702565b604051611e129190613ca1565b60405180910390a1565b600081600001549050919050565b6001816000016000828254019250508190555050565b611e5a828260405180602001604052806000815250612901565b5050565b611e678261275e565b611ea6576040517f08c379a0000000000000000000000000000000000000000000000000000000008152600401611e9d90614f0a565b60405180910390fd5b8060c960008481526020019081526020016000209080519060200190611ecd9291906139d0565b505050565b611eda611b52565b6bffffffffffffffffffffffff16816bffffffffffffffffffffffff161115611f38576040517f08c379a0000000000000000000000000000000000000000000000000000000008152600401611f2f90614f9c565b60405180910390fd5b600073ffffffffffffffffffffffffffffffffffffffff168273ffffffffffffffffffffffffffffffffffffffff161415611fa8576040517f08c379a0000000000000000000000000000000000000000000000000000000008152600401611f9f90615008565b60405180910390fd5b60405180604001604052808373ffffffffffffffffffffffffffffffffffffffff168152602001826bffffffffffffffffffffffff168152506101c4600085815260200190815260200160002060008201518160000160006101000a81548173ffffffffffffffffffffffffffffffffffffffff021916908373ffffffffffffffffffffffffffffffffffffffff16021790555060208201518160000160146101000a8154816bffffffffffffffffffffffff02191690836bffffffffffffffffffffffff160217905550905050505050565b60006067600083815260200190815260200160002060009054906101000a900473ffffffffffffffffffffffffffffffffffffffff169050919050565b600061012d60009054906101000a900473ffffffffffffffffffffffffffffffffffffffff1690508161012d60006101000a81548173ffffffffffffffffffffffffffffffffffffffff021916908373ffffffffffffffffffffffffffffffffffffffff1602179055508173ffffffffffffffffffffffffffffffffffffffff168173ffffffffffffffffffffffffffffffffffffffff167f8be0079c531659141344cd1fd0a4f28419497f9722a3daafe3b4186f6b6457e060405160405180910390a35050565b6000808273ffffffffffffffffffffffffffffffffffffffff163b119050919050565b600060019054906101000a900460ff166121f2576040517f08c379a00000000000000000000000000000000000000000000000000000000081526004016121e99061509a565b60405180910390fd5b6121fc828261295c565b5050565b600060019054906101000a900460ff1661224f576040517f08c379a00000000000000000000000000000000000000000000000000000000081526004016122469061509a565b60405180910390fd5b565b600060019054906101000a900460ff166122a0576040517f08c379a00000000000000000000000000000000000000000000000000000000081526004016122979061509a565b60405180910390fd5b565b600060019054906101000a900460ff166122f1576040517f08c379a00000000000000000000000000000000000000000000000000000000081526004016122e89061509a565b60405180910390fd5b6122f96129dd565b565b600060019054906101000a900460ff1661234a576040517f08c379a00000000000000000000000000000000000000000000000000000000081526004016123419061509a565b60405180910390fd5b612352612a49565b565b600060019054906101000a900460ff166123a3576040517f08c379a000000000000000000000000000000000000000000000000000000000815260040161239a9061509a565b60405180910390fd5b565b6123ad612aaa565b600160fb60006101000a81548160ff0219169083151502179055507f62e78cea01bee320cd4e420270b5ea74000d11b0c9f74754ebdbfc544b05a2586123f1611702565b6040516123fe9190613ca1565b60405180910390a1565b8173ffffffffffffffffffffffffffffffffffffffff168373ffffffffffffffffffffffffffffffffffffffff161415612477576040517f08c379a000000000000000000000000000000000000000000000000000000000815260040161246e90615106565b60405180910390fd5b80606a60008573ffffffffffffffffffffffffffffffffffffffff1673ffffffffffffffffffffffffffffffffffffffff16815260200190815260200160002060008473ffffffffffffffffffffffffffffffffffffffff1673ffffffffffffffffffffffffffffffffffffffff16815260200190815260200160002060006101000a81548160ff0219169083151502179055508173ffffffffffffffffffffffffffffffffffffffff168373ffffffffffffffffffffffffffffffffffffffff167f17307eab39ab6107e8899845ad3d59bd9653f200f220920489ca2b5937696c31836040516125689190613b27565b60405180910390a3505050565b612580848484611858565b61258c84848484612af4565b6125cb576040517f08c379a00000000000000000000000000000000000000000000000000000000081526004016125c290615198565b60405180910390fd5b50505050565b60606125dc826116b7565b600060c9600084815260200190815260200160002080546125fc90614322565b80601f016020809104026020016040519081016040528092919081815260200182805461262890614322565b80156126755780601f1061264a57610100808354040283529160200191612675565b820191906000526020600020905b81548152906001019060200180831161265857829003601f168201915b505050505090506000612686612c8b565b905060008151141561269c5781925050506126df565b6000825111156126d15780826040516020016126b99291906151f4565b604051602081830303815290604052925050506126df565b6126da84612ca2565b925050505b919050565b60007f780e9d63000000000000000000000000000000000000000000000000000000007bffffffffffffffffffffffffffffffffffffffffffffffffffffffff1916827bffffffffffffffffffffffffffffffffffffffffffffffffffffffff19161480612757575061275682612d0a565b5b9050919050565b60008073ffffffffffffffffffffffffffffffffffffffff166127808361207b565b73ffffffffffffffffffffffffffffffffffffffff1614159050919050565b6127a7612aaa565b6127b384848484612dec565b50505050565b50505050565b6000819050919050565b6000819050919050565b6127dc81612180565b61281b576040517f08c379a00000000000000000000000000000000000000000000000000000000081526004016128129061528a565b60405180910390fd5b806128487f360894a13ba1a3210667c828492db98dca3e2076cc3735a920a3ca505d382bbc60001b6127bf565b60000160006101000a81548173ffffffffffffffffffffffffffffffffffffffff021916908373ffffffffffffffffffffffffffffffffffffffff16021790555050565b61289583612f4c565b6000825111806128a25750805b156128b3576128b18383612f9b565b505b505050565b6128c0611055565b6128ff576040517f08c379a00000000000000000000000000000000000000000000000000000000081526004016128f6906152f6565b60405180910390fd5b565b61290b838361307f565b6129186000848484612af4565b612957576040517f08c379a000000000000000000000000000000000000000000000000000000000815260040161294e90615198565b60405180910390fd5b505050565b600060019054906101000a900460ff166129ab576040517f08c379a00000000000000000000000000000000000000000000000000000000081526004016129a29061509a565b60405180910390fd5b81606590805190602001906129c19291906139d0565b5080606690805190602001906129d89291906139d0565b505050565b600060019054906101000a900460ff16612a2c576040517f08c379a0000000000000000000000000000000000000000000000000000000008152600401612a239061509a565b60405180910390fd5b600060fb60006101000a81548160ff021916908315150217905550565b600060019054906101000a900460ff16612a98576040517f08c379a0000000000000000000000000000000000000000000000000000000008152600401612a8f9061509a565b60405180910390fd5b612aa8612aa3611702565b6120b8565b565b612ab2611055565b15612af2576040517f08c379a0000000000000000000000000000000000000000000000000000000008152600401612ae990615362565b60405180910390fd5b565b6000612b158473ffffffffffffffffffffffffffffffffffffffff16612180565b15612c7e578373ffffffffffffffffffffffffffffffffffffffff1663150b7a02612b3e611702565b8786866040518563ffffffff1660e01b8152600401612b6094939291906153d7565b602060405180830381600087803b158015612b7a57600080fd5b505af1925050508015612bab57506040513d601f19601f82011682018060405250810190612ba89190615438565b60015b612c2e573d8060008114612bdb576040519150601f19603f3d011682016040523d82523d6000602084013e612be0565b606091505b50600081511415612c26576040517f08c379a0000000000000000000000000000000000000000000000000000000008152600401612c1d90615198565b60405180910390fd5b805181602001fd5b63150b7a0260e01b7bffffffffffffffffffffffffffffffffffffffffffffffffffffffff1916817bffffffffffffffffffffffffffffffffffffffffffffffffffffffff191614915050612c83565b600190505b949350505050565b606060405180602001604052806000815250905090565b6060612cad826116b7565b6000612cb7612c8b565b90506000815111612cd75760405180602001604052806000815250612d02565b80612ce18461329d565b604051602001612cf29291906151f4565b6040516020818303038152906040525b915050919050565b60007f80ac58cd000000000000000000000000000000000000000000000000000000007bffffffffffffffffffffffffffffffffffffffffffffffffffffffff1916827bffffffffffffffffffffffffffffffffffffffffffffffffffffffff19161480612dd557507f5b5e139f000000000000000000000000000000000000000000000000000000007bffffffffffffffffffffffffffffffffffffffffffffffffffffffff1916827bffffffffffffffffffffffffffffffffffffffffffffffffffffffff1916145b80612de55750612de482613375565b5b9050919050565b612df8848484846133df565b6001811115612e3c576040517f08c379a0000000000000000000000000000000000000000000000000000000008152600401612e33906154d7565b60405180910390fd5b6000829050600073ffffffffffffffffffffffffffffffffffffffff168573ffffffffffffffffffffffffffffffffffffffff161415612e8457612e7f81613505565b612ec3565b8373ffffffffffffffffffffffffffffffffffffffff168573ffffffffffffffffffffffffffffffffffffffff1614612ec257612ec1858261354e565b5b5b600073ffffffffffffffffffffffffffffffffffffffff168473ffffffffffffffffffffffffffffffffffffffff161415612f0657612f01816136bb565b612f45565b8473ffffffffffffffffffffffffffffffffffffffff168473ffffffffffffffffffffffffffffffffffffffff1614612f4457612f43848261378c565b5b5b5050505050565b612f55816127d3565b8073ffffffffffffffffffffffffffffffffffffffff167fbc7cd75a20ee27fd9adebab32041f755214dbc6bffa90cc0225b39da2e5c2d3b60405160405180910390a250565b6060612fa683612180565b612fe5576040517f08c379a0000000000000000000000000000000000000000000000000000000008152600401612fdc90615569565b60405180910390fd5b6000808473ffffffffffffffffffffffffffffffffffffffff168460405161300d91906155c5565b600060405180830381855af49150503d8060008114613048576040519150601f19603f3d011682016040523d82523d6000602084013e61304d565b606091505b5091509150613075828260405180606001604052806027815260200161576e6027913961380b565b9250505092915050565b600073ffffffffffffffffffffffffffffffffffffffff168273ffffffffffffffffffffffffffffffffffffffff1614156130ef576040517f08c379a00000000000000000000000000000000000000000000000000000000081526004016130e690615628565b60405180910390fd5b6130f88161275e565b15613138576040517f08c379a000000000000000000000000000000000000000000000000000000000815260040161312f90615694565b60405180910390fd5b61314660008383600161279f565b61314f8161275e565b1561318f576040517f08c379a000000000000000000000000000000000000000000000000000000000815260040161318690615694565b60405180910390fd5b6001606860008473ffffffffffffffffffffffffffffffffffffffff1673ffffffffffffffffffffffffffffffffffffffff16815260200190815260200160002060008282540192505081905550816067600083815260200190815260200160002060006101000a81548173ffffffffffffffffffffffffffffffffffffffff021916908373ffffffffffffffffffffffffffffffffffffffff160217905550808273ffffffffffffffffffffffffffffffffffffffff16600073ffffffffffffffffffffffffffffffffffffffff167fddf252ad1be2c89b69c2b068fc378daa952ba7f163c4a11628f55a4df523b3ef60405160405180910390a46132996000838360016127b9565b5050565b6060600060016132ac8461382d565b01905060008167ffffffffffffffff8111156132cb576132ca613e45565b5b6040519080825280601f01601f1916602001820160405280156132fd5781602001600182028036833780820191505090505b509050600082602001820190505b60011561336a578080600190039150507f3031323334353637383961626364656600000000000000000000000000000000600a86061a8153600a858161335457613353614593565b5b04945060008514156133655761336a565b61330b565b819350505050919050565b60007f01ffc9a7000000000000000000000000000000000000000000000000000000007bffffffffffffffffffffffffffffffffffffffffffffffffffffffff1916827bffffffffffffffffffffffffffffffffffffffffffffffffffffffff1916149050919050565b60018111156134ff57600073ffffffffffffffffffffffffffffffffffffffff168473ffffffffffffffffffffffffffffffffffffffff16146134735780606860008673ffffffffffffffffffffffffffffffffffffffff1673ffffffffffffffffffffffffffffffffffffffff168152602001908152602001600020600082825461346b91906156b4565b925050819055505b600073ffffffffffffffffffffffffffffffffffffffff168373ffffffffffffffffffffffffffffffffffffffff16146134fe5780606860008573ffffffffffffffffffffffffffffffffffffffff1673ffffffffffffffffffffffffffffffffffffffff16815260200190815260200160002060008282546134f691906156e8565b925050819055505b5b50505050565b609980549050609a600083815260200190815260200160002081905550609981908060018154018082558091505060019003906000526020600020016000909190919091505550565b6000600161355b846110f3565b61356591906156b4565b905060006098600084815260200190815260200160002054905081811461364a576000609760008673ffffffffffffffffffffffffffffffffffffffff1673ffffffffffffffffffffffffffffffffffffffff168152602001908152602001600020600084815260200190815260200160002054905080609760008773ffffffffffffffffffffffffffffffffffffffff1673ffffffffffffffffffffffffffffffffffffffff168152602001908152602001600020600084815260200190815260200160002081905550816098600083815260200190815260200160002081905550505b6098600084815260200190815260200160002060009055609760008573ffffffffffffffffffffffffffffffffffffffff1673ffffffffffffffffffffffffffffffffffffffff16815260200190815260200160002060008381526020019081526020016000206000905550505050565b600060016099805490506136cf91906156b4565b90506000609a60008481526020019081526020016000205490506000609983815481106136ff576136fe61483b565b5b9060005260206000200154905080609983815481106137215761372061483b565b5b906000526020600020018190555081609a600083815260200190815260200160002081905550609a60008581526020019081526020016000206000905560998054806137705761376f61573e565b5b6001900381819060005260206000200160009055905550505050565b6000613797836110f3565b905081609760008573ffffffffffffffffffffffffffffffffffffffff1673ffffffffffffffffffffffffffffffffffffffff168152602001908152602001600020600083815260200190815260200160002081905550806098600084815260200190815260200160002081905550505050565b6060831561381b57829050613826565b6138258383613980565b5b9392505050565b600080600090507a184f03e93ff9f4daa797ed6e38ed64bf6a1f010000000000000000831061388b577a184f03e93ff9f4daa797ed6e38ed64bf6a1f010000000000000000838161388157613880614593565b5b0492506040810190505b6d04ee2d6d415b85acef810000000083106138c8576d04ee2d6d415b85acef810000000083816138be576138bd614593565b5b0492506020810190505b662386f26fc1000083106138f757662386f26fc1000083816138ed576138ec614593565b5b0492506010810190505b6305f5e1008310613920576305f5e100838161391657613915614593565b5b0492506008810190505b612710831061394557612710838161393b5761393a614593565b5b0492506004810190505b60648310613968576064838161395e5761395d614593565b5b0492506002810190505b600a8310613977576001810190505b80915050919050565b6000825111156139935781518083602001fd5b806040517f08c379a00000000000000000000000000000000000000000000000000000000081526004016139c79190613bdb565b60405180910390fd5b8280546139dc90614322565b90600052602060002090601f0160209004810192826139fe5760008555613a45565b82601f10613a1757805160ff1916838001178555613a45565b82800160010185558215613a45579182015b82811115613a44578251825591602001919060010190613a29565b5b509050613a529190613a56565b5090565b5b80821115613a6f576000816000905550600101613a57565b5090565b6000604051905090565b600080fd5b600080fd5b60007fffffffff0000000000000000000000000000000000000000000000000000000082169050919050565b613abc81613a87565b8114613ac757600080fd5b50565b600081359050613ad981613ab3565b92915050565b600060208284031215613af557613af4613a7d565b5b6000613b0384828501613aca565b91505092915050565b60008115159050919050565b613b2181613b0c565b82525050565b6000602082019050613b3c6000830184613b18565b92915050565b600081519050919050565b600082825260208201905092915050565b60005b83811015613b7c578082015181840152602081019050613b61565b83811115613b8b576000848401525b50505050565b6000601f19601f8301169050919050565b6000613bad82613b42565b613bb78185613b4d565b9350613bc7818560208601613b5e565b613bd081613b91565b840191505092915050565b60006020820190508181036000830152613bf58184613ba2565b905092915050565b6000819050919050565b613c1081613bfd565b8114613c1b57600080fd5b50565b600081359050613c2d81613c07565b92915050565b600060208284031215613c4957613c48613a7d565b5b6000613c5784828501613c1e565b91505092915050565b600073ffffffffffffffffffffffffffffffffffffffff82169050919050565b6000613c8b82613c60565b9050919050565b613c9b81613c80565b82525050565b6000602082019050613cb66000830184613c92565b92915050565b613cc581613c80565b8114613cd057600080fd5b50565b600081359050613ce281613cbc565b92915050565b60008060408385031215613cff57613cfe613a7d565b5b6000613d0d85828601613cd3565b9250506020613d1e85828601613c1e565b9150509250929050565b613d3181613bfd565b82525050565b6000602082019050613d4c6000830184613d28565b92915050565b600080600060608486031215613d6b57613d6a613a7d565b5b6000613d7986828701613cd3565b9350506020613d8a86828701613cd3565b9250506040613d9b86828701613c1e565b9150509250925092565b60008060408385031215613dbc57613dbb613a7d565b5b6000613dca85828601613c1e565b9250506020613ddb85828601613c1e565b9150509250929050565b6000604082019050613dfa6000830185613c92565b613e076020830184613d28565b9392505050565b600060208284031215613e2457613e23613a7d565b5b6000613e3284828501613cd3565b91505092915050565b600080fd5b600080fd5b7f4e487b7100000000000000000000000000000000000000000000000000000000600052604160045260246000fd5b613e7d82613b91565b810181811067ffffffffffffffff82111715613e9c57613e9b613e45565b5b80604052505050565b6000613eaf613a73565b9050613ebb8282613e74565b919050565b600067ffffffffffffffff821115613edb57613eda613e45565b5b613ee482613b91565b9050602081019050919050565b82818337600083830152505050565b6000613f13613f0e84613ec0565b613ea5565b905082815260208101848484011115613f2f57613f2e613e40565b5b613f3a848285613ef1565b509392505050565b600082601f830112613f5757613f56613e3b565b5b8135613f67848260208601613f00565b91505092915050565b60006bffffffffffffffffffffffff82169050919050565b613f9181613f70565b8114613f9c57600080fd5b50565b600081359050613fae81613f88565b92915050565b60008060008060808587031215613fce57613fcd613a7d565b5b6000613fdc87828801613cd3565b945050602085013567ffffffffffffffff811115613ffd57613ffc613a82565b5b61400987828801613f42565b935050604061401a87828801613cd3565b925050606061402b87828801613f9f565b91505092959194509250565b600067ffffffffffffffff82111561405257614051613e45565b5b61405b82613b91565b9050602081019050919050565b600061407b61407684614037565b613ea5565b90508281526020810184848401111561409757614096613e40565b5b6140a2848285613ef1565b509392505050565b600082601f8301126140bf576140be613e3b565b5b81356140cf848260208601614068565b91505092915050565b600080604083850312156140ef576140ee613a7d565b5b60006140fd85828601613cd3565b925050602083013567ffffffffffffffff81111561411e5761411d613a82565b5b61412a858286016140aa565b9150509250929050565b6000819050919050565b61414781614134565b82525050565b6000602082019050614162600083018461413e565b92915050565b61417181613b0c565b811461417c57600080fd5b50565b60008135905061418e81614168565b92915050565b600080604083850312156141ab576141aa613a7d565b5b60006141b985828601613cd3565b92505060206141ca8582860161417f565b9150509250929050565b600080600080608085870312156141ee576141ed613a7d565b5b60006141fc87828801613cd3565b945050602061420d87828801613cd3565b935050604061421e87828801613c1e565b925050606085013567ffffffffffffffff81111561423f5761423e613a82565b5b61424b878288016140aa565b91505092959194509250565b6000806040838503121561426e5761426d613a7d565b5b600061427c85828601613cd3565b925050602083013567ffffffffffffffff81111561429d5761429c613a82565b5b6142a985828601613f42565b9150509250929050565b600080604083850312156142ca576142c9613a7d565b5b60006142d885828601613cd3565b92505060206142e985828601613cd3565b9150509250929050565b7f4e487b7100000000000000000000000000000000000000000000000000000000600052602260045260246000fd5b6000600282049050600182168061433a57607f821691505b6020821081141561434e5761434d6142f3565b5b50919050565b7f4552433732313a20617070726f76616c20746f2063757272656e74206f776e6560008201527f7200000000000000000000000000000000000000000000000000000000000000602082015250565b60006143b0602183613b4d565b91506143bb82614354565b604082019050919050565b600060208201905081810360008301526143df816143a3565b9050919050565b7f4552433732313a20617070726f76652063616c6c6572206973206e6f7420746f60008201527f6b656e206f776e6572206f7220617070726f76656420666f7220616c6c000000602082015250565b6000614442603d83613b4d565b915061444d826143e6565b604082019050919050565b6000602082019050818103600083015261447181614435565b9050919050565b7f4552433732313a2063616c6c6572206973206e6f7420746f6b656e206f776e6560008201527f72206f7220617070726f76656400000000000000000000000000000000000000602082015250565b60006144d4602d83613b4d565b91506144df82614478565b604082019050919050565b60006020820190508181036000830152614503816144c7565b9050919050565b7f4e487b7100000000000000000000000000000000000000000000000000000000600052601160045260246000fd5b600061454482613bfd565b915061454f83613bfd565b9250817fffffffffffffffffffffffffffffffffffffffffffffffffffffffffffffffff04831182151516156145885761458761450a565b5b828202905092915050565b7f4e487b7100000000000000000000000000000000000000000000000000000000600052601260045260246000fd5b60006145cd82613bfd565b91506145d883613bfd565b9250826145e8576145e7614593565b5b828204905092915050565b7f455243373231456e756d657261626c653a206f776e657220696e646578206f7560008201527f74206f6620626f756e6473000000000000000000000000000000000000000000602082015250565b600061464f602b83613b4d565b915061465a826145f3565b604082019050919050565b6000602082019050818103600083015261467e81614642565b9050919050565b7f46756e6374696f6e206d7573742062652063616c6c6564207468726f7567682060008201527f64656c656761746563616c6c0000000000000000000000000000000000000000602082015250565b60006146e1602c83613b4d565b91506146ec82614685565b604082019050919050565b60006020820190508181036000830152614710816146d4565b9050919050565b7f46756e6374696f6e206d7573742062652063616c6c6564207468726f7567682060008201527f6163746976652070726f78790000000000000000000000000000000000000000602082015250565b6000614773602c83613b4d565b915061477e82614717565b604082019050919050565b600060208201905081810360008301526147a281614766565b9050919050565b7f455243373231456e756d657261626c653a20676c6f62616c20696e646578206f60008201527f7574206f6620626f756e64730000000000000000000000000000000000000000602082015250565b6000614805602c83613b4d565b9150614810826147a9565b604082019050919050565b60006020820190508181036000830152614834816147f8565b9050919050565b7f4e487b7100000000000000000000000000000000000000000000000000000000600052603260045260246000fd5b7f555550535570677261646561626c653a206d757374206e6f742062652063616c60008201527f6c6564207468726f7567682064656c656761746563616c6c0000000000000000602082015250565b60006148c6603883613b4d565b91506148d18261486a565b604082019050919050565b600060208201905081810360008301526148f5816148b9565b9050919050565b7f4552433732313a20696e76616c696420746f6b656e2049440000000000000000600082015250565b6000614932601883613b4d565b915061493d826148fc565b602082019050919050565b6000602082019050818103600083015261496181614925565b9050919050565b7f4552433732313a2061646472657373207a65726f206973206e6f74206120766160008201527f6c6964206f776e65720000000000000000000000000000000000000000000000602082015250565b60006149c4602983613b4d565b91506149cf82614968565b604082019050919050565b600060208201905081810360008301526149f3816149b7565b9050919050565b7f496e697469616c697a61626c653a20636f6e747261637420697320616c72656160008201527f647920696e697469616c697a6564000000000000000000000000000000000000602082015250565b6000614a56602e83613b4d565b9150614a61826149fa565b604082019050919050565b60006020820190508181036000830152614a8581614a49565b9050919050565b6000819050919050565b600060ff82169050919050565b6000819050919050565b6000614ac8614ac3614abe84614a8c565b614aa3565b614a96565b9050919050565b614ad881614aad565b82525050565b6000602082019050614af36000830184614acf565b92915050565b7f4f776e61626c653a206e6577206f776e657220697320746865207a65726f206160008201527f6464726573730000000000000000000000000000000000000000000000000000602082015250565b6000614b55602683613b4d565b9150614b6082614af9565b604082019050919050565b60006020820190508181036000830152614b8481614b48565b9050919050565b7f4552433732313a207472616e736665722066726f6d20696e636f72726563742060008201527f6f776e6572000000000000000000000000000000000000000000000000000000602082015250565b6000614be7602583613b4d565b9150614bf282614b8b565b604082019050919050565b60006020820190508181036000830152614c1681614bda565b9050919050565b7f4552433732313a207472616e7366657220746f20746865207a65726f2061646460008201527f7265737300000000000000000000000000000000000000000000000000000000602082015250565b6000614c79602483613b4d565b9150614c8482614c1d565b604082019050919050565b60006020820190508181036000830152614ca881614c6c565b9050919050565b614cb881614134565b8114614cc357600080fd5b50565b600081519050614cd581614caf565b92915050565b600060208284031215614cf157614cf0613a7d565b5b6000614cff84828501614cc6565b91505092915050565b7f45524331393637557067726164653a206e657720696d706c656d656e7461746960008201527f6f6e206973206e6f742055555053000000000000000000000000000000000000602082015250565b6000614d64602e83613b4d565b9150614d6f82614d08565b604082019050919050565b60006020820190508181036000830152614d9381614d57565b9050919050565b7f45524331393637557067726164653a20756e737570706f727465642070726f7860008201527f6961626c65555549440000000000000000000000000000000000000000000000602082015250565b6000614df6602983613b4d565b9150614e0182614d9a565b604082019050919050565b60006020820190508181036000830152614e2581614de9565b9050919050565b7f4f776e61626c653a2063616c6c6572206973206e6f7420746865206f776e6572600082015250565b6000614e62602083613b4d565b9150614e6d82614e2c565b602082019050919050565b60006020820190508181036000830152614e9181614e55565b9050919050565b7f45524337323155524953746f726167653a2055524920736574206f66206e6f6e60008201527f6578697374656e7420746f6b656e000000000000000000000000000000000000602082015250565b6000614ef4602e83613b4d565b9150614eff82614e98565b604082019050919050565b60006020820190508181036000830152614f2381614ee7565b9050919050565b7f455243323938313a20726f79616c7479206665652077696c6c2065786365656460008201527f2073616c65507269636500000000000000000000000000000000000000000000602082015250565b6000614f86602a83613b4d565b9150614f9182614f2a565b604082019050919050565b60006020820190508181036000830152614fb581614f79565b9050919050565b7f455243323938313a20496e76616c696420706172616d65746572730000000000600082015250565b6000614ff2601b83613b4d565b9150614ffd82614fbc565b602082019050919050565b6000602082019050818103600083015261502181614fe5565b9050919050565b7f496e697469616c697a61626c653a20636f6e7472616374206973206e6f74206960008201527f6e697469616c697a696e67000000000000000000000000000000000000000000602082015250565b6000615084602b83613b4d565b915061508f82615028565b604082019050919050565b600060208201905081810360008301526150b381615077565b9050919050565b7f4552433732313a20617070726f766520746f2063616c6c657200000000000000600082015250565b60006150f0601983613b4d565b91506150fb826150ba565b602082019050919050565b6000602082019050818103600083015261511f816150e3565b9050919050565b7f4552433732313a207472616e7366657220746f206e6f6e20455243373231526560008201527f63656976657220696d706c656d656e7465720000000000000000000000000000602082015250565b6000615182603283613b4d565b915061518d82615126565b604082019050919050565b600060208201905081810360008301526151b181615175565b9050919050565b600081905092915050565b60006151ce82613b42565b6151d881856151b8565b93506151e8818560208601613b5e565b80840191505092915050565b600061520082856151c3565b915061520c82846151c3565b91508190509392505050565b7f455243313936373a206e657720696d706c656d656e746174696f6e206973206e60008201527f6f74206120636f6e747261637400000000000000000000000000000000000000602082015250565b6000615274602d83613b4d565b915061527f82615218565b604082019050919050565b600060208201905081810360008301526152a381615267565b9050919050565b7f5061757361626c653a206e6f7420706175736564000000000000000000000000600082015250565b60006152e0601483613b4d565b91506152eb826152aa565b602082019050919050565b6000602082019050818103600083015261530f816152d3565b9050919050565b7f5061757361626c653a2070617573656400000000000000000000000000000000600082015250565b600061534c601083613b4d565b915061535782615316565b602082019050919050565b6000602082019050818103600083015261537b8161533f565b9050919050565b600081519050919050565b600082825260208201905092915050565b60006153a982615382565b6153b3818561538d565b93506153c3818560208601613b5e565b6153cc81613b91565b840191505092915050565b60006080820190506153ec6000830187613c92565b6153f96020830186613c92565b6154066040830185613d28565b8181036060830152615418818461539e565b905095945050505050565b60008151905061543281613ab3565b92915050565b60006020828403121561544e5761544d613a7d565b5b600061545c84828501615423565b91505092915050565b7f455243373231456e756d657261626c653a20636f6e736563757469766520747260008201527f616e7366657273206e6f7420737570706f727465640000000000000000000000602082015250565b60006154c1603583613b4d565b91506154cc82615465565b604082019050919050565b600060208201905081810360008301526154f0816154b4565b9050919050565b7f416464726573733a2064656c65676174652063616c6c20746f206e6f6e2d636f60008201527f6e74726163740000000000000000000000000000000000000000000000000000602082015250565b6000615553602683613b4d565b915061555e826154f7565b604082019050919050565b6000602082019050818103600083015261558281615546565b9050919050565b600081905092915050565b600061559f82615382565b6155a98185615589565b93506155b9818560208601613b5e565b80840191505092915050565b60006155d18284615594565b915081905092915050565b7f4552433732313a206d696e7420746f20746865207a65726f2061646472657373600082015250565b6000615612602083613b4d565b915061561d826155dc565b602082019050919050565b6000602082019050818103600083015261564181615605565b9050919050565b7f4552433732313a20746f6b656e20616c7265616479206d696e74656400000000600082015250565b600061567e601c83613b4d565b915061568982615648565b602082019050919050565b600060208201905081810360008301526156ad81615671565b9050919050565b60006156bf82613bfd565b91506156ca83613bfd565b9250828210156156dd576156dc61450a565b5b828203905092915050565b60006156f382613bfd565b91506156fe83613bfd565b9250827fffffffffffffffffffffffffffffffffffffffffffffffffffffffffffffffff038211156157335761573261450a565b5b828201905092915050565b7f4e487b7100000000000000000000000000000000000000000000000000000000600052603160045260246000fdfe416464726573733a206c6f772d6c6576656c2064656c65676174652063616c6c206661696c6564a2646970667358221220d9cf53721c6bfecd52f5591c50cab578656e8d0cbbdae9e20aa31e6967d6bae964736f6c63430008090033",
  "linkReferences": {},
  "deployedLinkReferences": {}
}